:10000000B6C20000ECC20000EAC20000E8C2000074
:10001000E6C20000E4C20000E2C20000E0C200004C
:10002000DEC20000DCC200000C94DD240C94AA2582
:100030000C943920D4C20000D2C20000D0C200000B
:10004000CEC20000CCC20000CAC20000C8C200007C
:10005000C6C200000C94B020C2C20000C0C20000A2
:10006000BEC20000BCC20000BAC20000B8C200009C
:10007000B6C20000B4C20000B2C20000B0C20000AC
:10008000AEC20000ACC20000AAC20000A8C20000BC
:10009000A6C20000A4C20000A2C20000A0C20000CC
:1000A0009EC200009CC200009AC2000029001E00EF
:1000B0001F0020002100220023002400250026002C
:1000C00027002D002E002A004A002B0014001A00E1
:1000D0000800150017001C0018000C001200130087
:1000E0002F0030000000490039000400160007000E
:1000F00009000A000B000D000E000F003300340051
:10010000280031004C00E10000001D001B0006002B
:100110001900050011001000360037003800E50016
:1001200052004D00E000E300E2000000000000008B
:100130002C0000000000E6002152500051004F004A
:10014000000001003A003B003C003D003E003F0043
:10015000400041004200430044004500010001000E
:100160000100010001000100010001000100010087
:100170000100010001000100010000000100010078
:100180000100010001000100010001000100010067
:100190000100010001000100010001000100000058
:1001A0000100010001000100010001000100010047
:1001B0000100010001000100010001000100010037
:1001C000000000000000010000000000010001002C
:1001D00001000100010000001E0F0500047F3F1F09
:1001E000643214643214783C1E1E140A052223253E
:1001F0002628292A2C2D2F3032333536383A3B3DEC
:100200003E4042434547494A4C4E50515355575939
:100210005A5C5E6062646668696B6D6F7173757756
:10022000797B7D7F81838587898A8C8E9092949655
:10023000989A9C9E9FA1A3A5A7A8AAACAEAFB1B364
:10024000B4B6B8B9BBBCBEBFC1C2C3C5C6C7C9CAB4
:10025000CBCCCDCED0D1D2D2D3D4D5D6D7D7D8D976
:10026000D9DADADBDBDBDCDCDCDCDCDDDDDDDDDCD4
:10027000DCDCDCDCDBDBDBDADAD9D9D8D7D7D6D5E6
:10028000D4D3D2D2D1D0CECDCCCBCAC9C7C6C5C3A8
:10029000C2C1BFBEBCBBB9B8B6B4B3B1AFAEACAAF5
:1002A000A8A7A5A3A19F9E9C9A98969492908E8CA5
:1002B0008A89878583817F7D7B79777573716F6D7F
:1002C0006B6968666462605E5C5A59575553515059
:1002D0004E4C4A4947454342403E3D3B3A3836350D
:1002E0003332302F2D2C2A292826252322FFAA7FBE
:1002F0005540000101010101010101010202020258
:1003000002020202020303030303030303040404BF
:100310000404040405050505050606060606070788
:1003200007070708080808090909090A0A0A0B0B40
:100330000B0C0C0C0D0D0D0E0E0E0F0F0F101011DF
:100340001111121213131414151516161717181865
:1003500019191A1A1B1B1C1D1D1E1E1F20202122CD
:1003600022232424252626272829292A2B2C2D2D13
:100370002E2F30313232333435363738393A3B3C30
:100380003D3E3F404142434445464748494A4C4D23
:100390004E4F50515354555658595A5B5D5E5F61EC
:1003A0006264656668696B6C6D6F7072737577787F
:1003B0007A7B7D7E8082838587888A8C8E8F9193DD
:1003C0009596989A9C9EA0A2A3A5A7A9ABADAFB104
:1003D000B3B5B7BABCBEC0C2C4C6C9CBCDCFD1D4E9
:1003E000D6D8DBDDDFE2E4E7E9EBEEF0F3F5F8FA8F
:1003F000FDFF100348004100560045004E00360046
:10040000350000001C034100740065006C006900A9
:10041000650072005F0048006100760065006E00B4
:1004200000000403090409023B00020100A0FA09CC
:10043000040000010301010009211101000122440F
:100440000007058103080001090401000103000001
:100450000009211101000122B600070582032000D6
:100460000112010002000000084644654600010137
:1004700002000105010902A10185020901A100058F
:100480000919012908150025019508750181020542
:1004900001093009311581257F950275088106090A
:1004A000381581257F950175088106050C0A3802EB
:1004B0001581257F950175088106C0C00501098059
:1004C000A101850319012AB700150126B70095017E
:1004D00075108100C0050C0901A101850419012ACC
:1004E000A002150126A002950175108100C005012A
:1004F0000906A1018506050719E029E71500250170
:100500009508750181020507190029EF15002501DD
:1005100095F07501810205081901290595057501F8
:100520009102950175039101C005010906A101051C
:100530000719E029E7150025019508750181029545
:1005400001750881010507190029FF150026FF0024
:100550009506750881000508190129051500250172
:10056000950575019102950175039101C000112453
:100570001FBECFEFDAE0DEBFCDBF04B603FE18C06A
:100580008091340390913503A0913603B0913703E5
:100590008730904BA740B04B59F41092340310921F
:1005A00035031092360310923703E0E0F8E3099523
:1005B00011E0A0E0B1E0ECE2F3E502C005900D929D
:1005C000AA3EB107D9F723E0AAEEB1E001C01D921F
:1005D000A433B207E1F70E94BC110C940B2910CD93
:1005E000CF93DF93D82F48D1C82F882341F020E044
:1005F0004FEFD1FF40E060E080E00E9468148C2F54
:10060000DF91CF9108958230B8F46530A8F44F306F
:1006100098F450E09FE0699F400D511D1124FA01AC
:100620009BE4899FE00DF11D1124EE0FFF1FE4559F
:10063000FF4F85919491089581E090E00895E3CF74
:10064000089581E00895FDCF0895FBCF089581E0DE
:100650000895F7CF0895F5CF0895FDCF0895089533
:100660000895FDCF089508950895A6E0B0E0EBE366
:10067000F3E00C94D92749835A839E833091F1018A
:1006800089819A81311117C03E81332389F0222359
:1006900079F02AD5182F682F89819A8104D569812C
:1006A0007A81812F0E94B00E2696E3E00C94F52704
:1006B0000BD5182FF4CF18D569817A81F3CFFC01BF
:1006C000262F408151816281738184819581CDCFB4
:1006D000CF93DF93EC0161E0F2DFBE01B4DF88234A
:1006E00049F061E0CE01EBDFBE01AFDF8170DF9149
:1006F000CF91089580E0FACF0F931F93CF93DF93AC
:10070000EC0160E0DCDF8C01BE01AADFBE01C801A4
:10071000A8DFDF91CF911F910F91089521E030E084
:10072000A90102C0440F551F8A95E2F7CA01F4C31C
:10073000CF93C82F81E090E00C2E02C0880F991F44
:100740000A94E2F70E94AB0C8C2FE8DFCF9108955A
:1007500081E00895FDCF0895FBCF0895CF93C82F72
:1007600093D38C2FF7DF8C2FF7DF2FEF84E39CE000
:10077000215080409040E1F700C00000CF910895E3
:1007800081E0ECDF0C94D42080E0E8DF0C94F820CA
:100790000F931F93CF93DF938C0161E090DFEC0107
:1007A000F801858181110E946518B801CE0151DFE1
:1007B000811106C080E0DF91CF911F910F910895C4
:1007C000B801CE014ADF8823A9F3B801CE010E9407
:1007D000B41D882379F3B801CE010E940E1A882334
:1007E00049F3B801CE010E94E619882319F3B80134
:1007F000CE010E94D2118823E9F2B801CE010E94F5
:10080000B00F8823B9F2F8018581882361F0C330E5
:10081000FCE7DF07D9F050F4C115ECE7DE07A1F0E3
:10082000C130DC47A9F0C80112DFC5CFCB358CE75A
:10083000D80799F0CC35ECE7DE0761F0CA35DC4724
:1008400091F70E94730CEFCF9BDFB4CF0E94A30CF3
:100850009BDFB0CF0E946B0CE6CF0E94750CE3CFFC
:1008600002DF0E9410200DD00C940D170CD00E94B6
:10087000BF17FADE0C94142081E008950895B0CEDD
:10088000089580E0FCCF0E94031EF9CFCF930E9411
:10089000031EC82F8091EC018C1771F0C093EC01FE
:1008A0000E94A4206093ED017093EE018093EF010C
:1008B0009093F0018C2FE3DFCF910895ADE0B0E08D
:1008C000E4E6F4E00C94DA27488759876A877B8747
:1008D0008C879D8791112AD71F8286E0FE0138966A
:1008E000DE01119601900D928A95E1F78D818111BB
:1008F0000CC029813A814B815C816D817E818F8121
:1009000065D62D96E2E00C94F627CE010196E0DE46
:100910008111EFCFF6CFFC012481213019F48081C1
:10092000918113C40895662321F00E946B1B0C94DF
:10093000361C0E94BD1BFBCFCF93C82F8823B1F07C
:100940008CEF8C0F813AA0F48C2F0E942E1981110C
:100950000DC08C2F0E94B21E882321F08C2F0E9484
:10096000541F6FD78C2F0E943D1F6BD7CF910895D6
:1009700080E28C0F883040F4C77081E001C0880F9E
:10098000CA95EAF7B6D6F1CFEBE5EC0FE33040F4C9
:10099000F0E0E959FE4F808190E00E94431EE6CFCF
:1009A000E8E5EC0FEB3150F4F0E0EE0FFF1FEF5CE9
:1009B000FE4F808191810E946A1ED8CF83E38C0F05
:1009C0008331A0F661E08C2FAEDFD0CF882351F1C8
:1009D0009CEF980F913A18F40E94541F32C790E28E
:1009E000980F983048F4877091E001C0990F8A956C
:1009F000EAF7892F84D6F2CF9BE5980F933020F445
:100A000090E080E00C94431E98E5980F9B3120F411
:100A100090E080E00C946A1E93E3980F933110F4F9
:100A200060E081CF08951F93CF93DF93182FEB01E0
:100A300083DF209731F4812FC9DFDF91CF911F91A0
:100A400008958FE99FE00197F1F700C0000021971A
:100A5000F0CF70E060E0893311F460E570E0E3CF3F
:100A6000882311F046D6EDC60895882311F047D6A5
:100A7000E8C60895B0E0A0E0E0E4F5E00C94D327E8
:100A80006C01D62FC72FFC011581068102950F70CE
:100A900026D6E82E8823E9F0E12E1123D1F08C2F01
:100AA000807F803461F080E28D0F8830F8F08C2FE9
:100AB000807E803221F4D230C8F00023B9F08091DA
:100AC000030382FF13C082E0E0D609D691E0E82E4E
:100AD000E926BC2EB2949FE0B922FBE0FB1580F121
:100AE000EB2DF0E0E35FF64D0C949927E12CF1CF6C
:100AF0000C2F0F70C07F11F00295007F112381F041
:100B0000002349F080E28D0F883010F0D11105C02C
:100B1000802FEFD596D68D2F40C0802FFAD5FACFF3
:100B20008D2F54DF002361F080E28D0F883010F0AC
:100B3000D11103C0802FE3D502C0802FF0D581D61C
:100B4000EB2DE850FF0B349708F04CC10E94031EB8
:100B500096DECDB7DEB7E9E00C94EF272C2F2F708F
:100B6000F22EC07FC03219F0F29480EFF822DD231C
:100B700041F0D13081F1112309F439C00023C9F0CB
:100B8000CACF8091030382FD10C0112341F0FF20E2
:100B900019F08F2DAED555D680E0CEDED1CF80E0D6
:100BA00015DFFF2069F28F2DC6CF112359F00111F7
:100BB00003C08F2D55DFC4CF013009F0C1CF8F2D79
:100BC000C9D5BECF0111BCCF8F2D4FDF8F2DCDD515
:100BD0008F2DB2D5B5CF112321F0063008F0B0CF5C
:100BE000E8CF053008F0ACCF8F2D3FDFA9CF002331
:100BF000D9F3D93349F43FEF87EE93E03150804089
:100C00009040E1F700C000008D2FE0DE99CF8C2FDF
:100C100086958695837069F0813009F091CF8D2F8C
:100C20009C2F9370111102C080E090E00E946A1E18
:100C300087CF8D2F9C2F9370111102C080E090E020
:100C40000E94431E7DCF612F8D2F6DDE79CF8C2FBB
:100C5000837081F5111174CF4D2F429546954770E1
:100C6000440F440F2D2F2F7030E0042E02C0220FAE
:100C7000331F0A94E2F790E080E0D4FF09C08FE0D0
:100C800090E002C0880F991F4A95E2F780959095F1
:100C9000C695C695C370822B932BC23039F040F4B1
:100CA000C13011F042D14CCF39D14ACF45D148CFD4
:100CB00033D146CF8695112311F08C2F8170882374
:100CC00009F43ECF4D2F429546954770440F440F8F
:100CD0002D2F2F7030E0042E02C0220F331F0A94F4
:100CE000E2F790E080E0D4FF09C08FE090E002C01E
:100CF000880F991F4A95E2F780959095C695C695FD
:100D0000C370822B932BC23039F040F4C13011F004
:100D100067D116CF5ED114CF6AD112CF1AD110CFBE
:100D2000CF70112321F08C2F28D18D2F43CF8D2F01
:100D30009CDE8C2F30D104CFD23F39F160F4D03F0C
:100D4000B9F0D13F81F0112309F43CC00111E3CE89
:100D50008C2F8F711EC0D33FF1F0D43FA1F780914B
:100D6000030382FD20C08C2F8F71112319F311C052
:100D7000112339F0053008F0E3CE8C2F8F711BD191
:100D8000DFCE063008F0DCCEF8CF8C2F8F7111113A
:100D9000D1CFF3D0D5CE112321F08C2F8F71E3D09A
:100DA000CFCEDED0CDCE112329F063E08C2F8F7112
:100DB00055D5C6CE81E069D5023008F4C1CE82E0B7
:100DC00064D5BECE002359F0D93309F01DCFEFEF23
:100DD000F7EE23E0E150F0402040E1F713CF8C2FF5
:100DE0008F71A8CFEE2009F4B4CE75D480FDB1CEBA
:100DF000F60115826AD4C1D0C60117D066D4CBD013
:100E0000A8CE0F931F93CF93DF93EC016881798174
:100E10008D81A4D18C01F2D07ED0B801CE012ADE22
:100E2000DF91CF911F910F910895CF93DF93EC0144
:100E30008C81882381F0CE01ABDC81110FC04FD4AF
:100E4000882349F08D81882331F08091030382FF4C
:100E500002C082E01AD5DF91CF910895CE01D1DF93
:100E6000CE014ADCF8CF90E080E00E94431E90E083
:100E700080E00E946A1E5AD4E4D40E944F1C0C9455
:100E8000361C0E946B1FEFCF41D4FBCF92959F7011
:100E9000963091F058F4925F9F70923058F4803FF2
:100EA00019F030F4883E30F481E008959A5FF4CF71
:100EB000843FD1F380E00895883EB0F3813FD1F7BD
:100EC000F3CFFC012481222321F0808191813DD147
:100ED000DDCF80E00895A6E0B0E0E1E7F7E00C9414
:100EE000DA272696E2E00C94F627A7E0B0E0EBE7DD
:100EF000F7E00C94DA272796E2E00C94F6270895A1
:100F0000FECF0895FDCF0895FADFFCDF90931D0218
:100F100080931C0208950895F7CF089520911C0234
:100F200030911D02822B932BEFCF20911C02309128
:100F30001D0282239323E8CF20911C0230911D02D1
:100F400082279327E1CFDBCF0895FDCF0895D7CF38
:100F50000895FDDFFADF90931B0280931A02089533
:100F600090E080E0F6CF21E030E0A90102C0440F1C
:100F7000551F8A95E2F7CA01ECCF21E030E002C0AC
:100F8000220F331F8A95E2F780911A0290911B027B
:100F9000822B932BDECF21E030E002C0220F331FE3
:100FA0008A95E2F72095309580911A0290911B0264
:100FB00082239323CECF21E030E002C0220F331FE3
:100FC0008A95E2F780911A0290911B02822793275B
:100FD000C0CF20911A0230911B02822B932BB9CFE4
:100FE00020911A0230911B0282239323B2CF2091C9
:100FF0001A0230911B0282279327ABCF0895262F28
:10100000277091E001C0990F2A95EAF723E07695C1
:1010100067952A95E1F7660F771F660F771FFA012C
:10102000E60FF71F50E040E0682F70E08191DF018C
:1010300011979B01042E02C0369527950A94E2F77A
:10104000217021952827292328272C934F5F5F4F54
:101050004430510559F70895A82FA77023E09695BD
:1010600087952A95E1F7880F991F880F991FFB0133
:10107000E80FF91F50E040E080E0219130E00A2EB7
:1010800002C0369527950A94E2F721703327042E83
:1010900001C0220F0A94EAF7822B4F5F5F4F443062
:1010A000510559F70895262F953068F48F3058F47C
:1010B000682F70E08FE0989F600D711D112442EF42
:1010C00051E0822F9CCF0895292F953058F48F300E
:1010D00048F490E062EF71E03FE0239F800D911DA6
:1010E0001124BACF80E00895B0E0A0E0EAE7F8E08C
:1010F0000C94D3277C0100911A0210911B0280915D
:101100001C0290911D02082B192BCFE0D0E0CC24BB
:10111000C394D12CBC2EC6010C2E02C0880F991F7F
:101120000A94E2F780239123892B49F4219790F7C1
:10113000B12C8B2DCDB7DEB7E9E00C94EF27B701CA
:101140008C2F19D6019791F3F4CFCF93DF93EC0155
:10115000CBDFBE0110D6DF91CF9108951F93CF93BF
:10116000DF93EB019091F101992331F0CB01EDDF99
:10117000DF91CF911F910895882351F0CB01B4DF07
:10118000182F682FCE018FDFBE01812FF4D5F0CF4D
:10119000CB019ADF182FF8CF1F93CF93DF93C09125
:1011A0001E0217E080911F028C1304C0DF91CF91C3
:1011B0001F910895D0E01C9FF0011D9FF00D112498
:1011C000E05EFD4F208131814281538164817581D0
:1011D00086818BDE2196C770E5CF20915802309131
:1011E000590240915A0250915B0260915C027091E9
:1011F0005D0280915E0279CECF93DF9380915E0293
:10120000807F09F04BC080915D02882309F446C0BD
:10121000E0911E0250911F02C0915902D0915802D4
:1012200060915A0270915B0247E05E17B9F18E2F10
:1012300090E0E49FF0011124E05EFD4F2481222321
:1012400081F1489FF001499FF00D1124DF01A05E5C
:10125000BD4F11962C9111972C1323C02C912D1357
:1012600020C015962C91159721111BC012962D9117
:101270003C91261B370B283C310598F480915E0287
:101280008F70806180935E02EA5DFD4F80818F7078
:101290008061808388E592E0C8DD7EDFDF91CF91B9
:1012A0000895FC013196E770C0CF482F20911E02AF
:1012B00090911F0257E0291302C080E0089530E0AA
:1012C000529FF001539FF00D1124E05EFD4F81818C
:1012D000681306C08081481303C085818111EECF59
:1012E0002F5F3F4F2770E7CFA4E1B0E0EAE7F9E0D6
:1012F0000C94D0278C0186E0F801DE011F96019046
:101300000D928A95E1F7F8018481E58098E5A92E90
:1013100092E0B92E90915C0291111AC08823A9F035
:10132000EE2089F0C801CDDDF82E882361F087E03A
:10133000F801D50101900D928A95E1F7C501EBDA2C
:101340005BDF4BDF59C0C80170DDFF24F39454C04C
:10135000C080D18082809380F0905D0220915A02FB
:1013600030915B02A401421B530BFF2009F4E9C03A
:10137000483C510508F09CC0882309F43DC0909179
:10138000590280915E02282F207F09F056C09D11DE
:1013900014C090915802C91210C0E11048C08F705B
:1013A000806180935E0219DF88E592E03EDD8091E6
:1013B0005E02F8018683F12C1FC0E11038C06D2D4C
:1013C0008C2D73DF6D2D8C2D70DFE82E8111F3CF06
:1013D000CF86D88A8F859889B8DE292F22952F70DD
:1013E000243078F49F702230A0F09923B1F0F801F6
:1013F0009681907F91F4FE2C8F2D6496ECE00C94F6
:10140000EC272A5F2F70223060F0C8010EDDEF2C30
:10141000F2CF992311F0882371F3805E883058F35E
:10142000F4CF803F40F3815F833078F7E4CF809141
:101430005E02816080935E02BECF9D1112C09091CA
:101440005802C9120EC0E1100CC08683C801EDDC41
:1014500087E0F801A8E5B2E001900D928A95E1F7E6
:1014600070CFC8012EDD882309F46DCFEE2009F47A
:101470006ACF80915E02803280F0209158023091D4
:101480005902398728879B868A8690915C029C87BF
:101490001D868E87CE010896C8DC87E0F801A8E596
:1014A000B2E001900D928A95E1F7A6DE96DE4DCF6F
:1014B00090915E02292F207F89F4682D9A8A898A6B
:1014C000A6017A899E2D07DD88E592E0AEDC87E0F3
:1014D000F50111928A95E9F780DE6DCF882309F432
:1014E0008BCF809159028D110FC080915802C81284
:1014F0000BC0E11009C09683C80197DC87E0F501B5
:1015000011928A95E9F778CFC801DBDC882309F4CA
:101510001ACFEE2009F417CF80915E02803208F4D2
:10152000BCCF20915802309159023A8329839C8282
:101530008B8290915C029D831E828F83CE010196E7
:10154000ABCF483C5105A8F5882309F4FECEFE2C0C
:10155000EE2009F4F8CE809159028D111EC08091C1
:101560005802C8121AC080915E0280FD0DC0982FEB
:10157000907F51F08683903F09F468CF982F907F39
:10158000905F8F70892B61CF87E0F801A8E5B2E00A
:1015900001900D928A95E1F72FCFC80192DC81115D
:1015A0007CCF80915E02816080935E02C8013DDC49
:1015B00023CF682D9A8A898AA6017A899E2D8BDC91
:1015C00087E0F50111928A95E9F7BBCEAEE0B0E075
:1015D000ECEEFAE00C94D927288739874A875B8795
:1015E0006C877D878E87CE0108967EDE8823A9F0E2
:1015F0006C85662339F0288539854A855B857D852C
:101600008E8573DC17E080911E0290911F02891372
:101610003BC02E96E3E00C94F52787E0FE01389658
:10162000DE01119601900D928A95E1F78C85882351
:1016300049F320911F0230E0C90101968770992774
:1016400040911E024817190691F097E0929FD00131
:10165000939FB00D1124A05EBD4FFE013196019005
:101660000D929A95E1F780931F0296DDCBCF0CDCAB
:1016700010921F0210921E0287E0E8E5F2E0DF01FF
:101680001D928A95E9F7BECF819FC0011124805E2B
:101690009D4F2ADE882309F4BCCFE0911E021E9FD5
:1016A000F0011124E05EFD4F2081318142815381A0
:1016B00064817581868119DC80911E0290E001961B
:1016C0008770992780931E029ECF8091870286950E
:1016D00086958695089580918702877008959091E8
:1016E0008702977081E009F480E008958091B30249
:1016F00008959091B302892B8093B3020895809549
:101700009091B30298239093B30208951092B3027C
:1017100008959091B202892B8093B202089580952A
:101720009091B20298239093B20208951092B2025F
:1017300008950895FECF089590918802292F2823B7
:1017400029F08095892380938802F4CF0895089525
:10175000FECF089590918902292F2823281721F080
:10176000982B90938902F4CF089590918902292FA4
:10177000282329F08095892380938902E9CF089551
:1017800080918902882321F01092890280E0E0CFC5
:101790000895CF93C091B3028091B202C82B80917B
:1017A0008902882329F0C82B0E94911E8111E8DF4D
:1017B0008C2FCF910895CF93DF93C0910601D091E4
:1017C0000701E7DF8883C0910601D091070148E057
:1017D00050E06FE772E0CE010E949928892B59F002
:1017E00088E0FE01AFE7B2E001900D928A95E1F743
:1017F000CE010E94121EDF91CF910895CF93DF9307
:10180000C0910401D0910501C4DF8983C091040116
:10181000D091050140E250E06FE572E0CE010E94F8
:101820009928892B59F080E2FE01AFE5B2E00190E2
:101830000D928A95E1F7CE010E941F1EDF91CF9194
:1018400008950E94FC1D882329F08091020387FFE0
:1018500001C0D4CFB0CF0895FECF08959091030377
:1018600092FF0EC098E0899F90011124622B609333
:10187000870283DB80918702869586958695ECCFDB
:101880007CCB1092870280E0E7CF90918702809511
:10189000892380938702282F277059F4891749F0EC
:1018A0009091030392FF05C086958695869573DB1C
:1018B000E8CF08959091030392FB222720F928177F
:1018C00049F080FB92F99093030382E093E047D0C4
:1018D00082E0DBCF08958091030382FB882780F9A3
:1018E00091E08927E7CF81E0E5CF80E0E3CF60E0BA
:1018F00070E0CB01F5C360E070E0CB01EBD3F7CF34
:10190000A3E0B0E0E6E8FCE00C94DA273BD346D352
:101910001B82CE01039659D381E090E090931D0283
:1019200080931C025ED31A8219828A8184618A8321
:10193000CE01019667D33FD6DEDF2396E2E00C941A
:10194000F627DECF089530C308951DC3089532C32E
:10195000089541C3089545C3089548C3089552C3E7
:10196000089557C3089596C30895C0C30895A6E087
:10197000B0E0EDEBFCE00C94D8270E9498208C019D
:101980008091B4029091B5028017910781F019827D
:101990001A820E949820682F49815A81792F80E00D
:1019A00090E00E945E041093B5020093B402269664
:1019B000E4E00C94F4270E94A4206093C402709386
:1019C000C5028093C6029093C7026093C0027093D1
:1019D000C1028093C2029093C302089508950895AE
:1019E000FDCF08950895FEDFFBCF0895FECF089543
:1019F0000895FEDFFBCF8EEA9FE0CFD4F0DFF3CF78
:101A000081E00895FDCF0895FBCF089508950895CE
:101A10000895FCDFFCDFFCCF98DF811101C091DF6E
:101A200088EC92E094DF82E093E097DF0E94BB189D
:101A300090DF72DA80911A0290911B0286CA0E948E
:101A40008F2012D4E9DF0E943E040E949317D1CF69
:101A5000A6E0B0E0EEE2FDE00C94CE27D3DF8111EA
:101A60000BC085DF0E9466180E94711C0E9446040C
:101A70002696EEE00C94EA2709D426EB822E22E08B
:101A8000922E640110E0F601E190F1906F01812F38
:101A900038D31F5F153009F447C0E816F90699F3EB
:101AA0008091C80281FD36D3AFDF782E10E0662426
:101AB0006394812F26D37C01F401A190B1904F0152
:101AC0008A159B0561F100E0CC24C394D12CAE248F
:101AD000BF24C5018C219D21892BC1F07720B1F055
:101AE00009831A830E9498209C838B836D8221E056
:101AF000C7018C219D21892B09F420E049815A815D
:101B00006B817C818D81922F0E945E040F5FCC0CD3
:101B1000DD1C0F30F1F6F4013297F182E0821F5F95
:101B2000153039F648DF9ECFE816F90609F0B8CF30
:101B300098CF1F93CF93DF9320D1EC01C11580E59F
:101B4000D807F0F5C11580E4D80708F09AC0C03E68
:101B5000D10520F5CD3CD10508F082C0C83AD105A9
:101B600078F4C53AD10508F073C0C130D10519F138
:101B7000209709F1C430D105F0F4D0E0C0E01BC0DB
:101B8000C33CD105D0F7C85AD0E0CC0FDD1FC659F1
:101B9000DE4F0990D881C02DD4640DC0C11580E2FC
:101BA000D80708F0CDC0C11581E0D80708F05AC0A9
:101BB000C83ED10510F7CE01DF91CF911F91089556
:101BC000C03682E5D80718F5C03482E5D80708F09A
:101BD00068C0C03282E5D80708F05CC0C11582E554
:101BE000D80708F493C02C2F2695269580E2289FCD
:101BF000900111248C2F8370C1E0D0E002C0CC0F83
:101C0000DD1F8A95E2F7C22BD32BDD68D4CFC03A13
:101C100082E5D80760F4C03882E5D80708F456C0DA
:101C2000CF71D0E0DC2FCC27C46FD06AC4CFC03CCA
:101C300082E5D80708F45FC0C03E82E5D80708F007
:101C40009CCFDC2FCC27CC27DF71C06FD06AB3CFFD
:101C5000C55AD0E0C056DE4FC881D0E0D064ABCFCB
:101C6000D065A9CF8D2F2BD1182FCE01992785D0E4
:101C7000C12FD0E0DC2FCC27CC27DF71C82BD92B8C
:101C80009ACFCE01992779D0CC27DF70C82BD92BDA
:101C9000D06A91CFCF71D0E0DC2FCC27C16FD06A52
:101CA0008ACF2C2F26952695277080E2289F9001B9
:101CB00011248C2F8370C1E0D0E002C0CC0FDD1F57
:101CC0008A95E2F7C22BD32BDC6875CF2C2F269593
:101CD0002695277080E2289F900111248C2F837015
:101CE000C1E0D0E002C0CC0FDD1F8A95E2F7C22B25
:101CF000D32BDA6860CF8C2F8F71E1D0C82FD0E062
:101D0000DC2FCC27CC27DF71D06255CF8C2F8F7181
:101D1000D6D055E0D695C7955A95E1F7CF70D0E06B
:101D2000DC2FCC27282F30E084FF06C044E0220FB0
:101D3000331F4A95E1F73327C22BD32BD0693BCF12
:101D40008D2F8F71BCD0182FCE01992716D0C12F9F
:101D5000D0E0DC2FCC27CC27DF71C82BD92BD4CFF8
:101D6000462F753028F46F3018F4672F0C941F033A
:101D700090E080E00895F4DFDCCE82389105B9F17F
:101D8000B0F48133910509F47DC048F4893291059E
:101D900009F46DC08A32910509F47BC0089585333A
:101DA000910509F45FC08933910509F10895833ED7
:101DB0009105D9F138F4803E910529F1823E9105D3
:101DC00079F10895863E9105D9F1873E910509F490
:101DD0003EC0843E910541F52091030321FF24C0BC
:101DE0008091020384FD19C087EE90E00895209150
:101DF0000203237009F05AC02091030323FF14C08B
:101E000089E290E008952091020320FD38C03091CE
:101E1000030330FF09C024FF43C090E080E0089531
:101E20002091020322FDF7CF08952091020322FDA5
:101E30003AC03091030330FD39C024FFF5CFEDCF18
:101E40002091020323FFF0CF24FDE7CFCDCF2091D7
:101E5000020323FD2EC03091030331FFEECF84EE49
:101E600090E008952091020325FFDECFC9CF209195
:101E7000020325FD21C02091030323FFD5CF89E371
:101E800090E0D2CF2091020326FFCECF8AE290E0ED
:101E900008952091020326FFC7CF81E390E00895C3
:101EA00083EE90E0089582EE90E0089580EE90E059
:101EB000089586EE90E0089585E390E0089590916E
:101EC000020392FF10C041E0282F2471243009F052
:101ED00040E031E0282F2871283009F030E0431726
:101EE00011F02CE0822793FF10C041E0282F2471CD
:101EF000243109F040E031E0282F2871283109F021
:101F000030E0431711F02CE082273091030330FFBB
:101F100010C051E0282F2171213009F050E041E03C
:101F2000282F2871283009F040E0541711F029E0DB
:101F3000822731FF10C041E0282F2171213109F0A3
:101F400040E031E0282F2871283109F030E04317B4
:101F500011F029E0822794FD877E089580E008959E
:101F6000CF939C01205E3245C1E02032310538F428
:101F7000FB01C581C11103C08F710E9498038C2F92
:101F8000CF910895089590E080E00E94BC2821E060
:101F9000833E9E4F09F020E0822F089563EE7EEF8E
:101FA00090E080E00C94DB286FEF7FEF90E080E022
:101FB0000C94DB28CF93DF93EC0182E090E00E9449
:101FC000AF288883DF91CF910895FC01608182E082
:101FD00090E00C94C12883E090E00E94AF2890E04C
:101FE0000895682F83E090E00C94C128CF93DF938D
:101FF000EC0184E090E00E94BC2899838883DF9103
:10200000CF910895FC016081718184E090E00C948F
:10201000DB284F925F926F927F928F929F92AF9246
:10202000BF920F93CF93DF93EC0188E090E00E9482
:10203000B7282B013C01688359828A837B821C82EA
:102040001D821E821F8283E290E00E94AF28282F0B
:1020500030E040E050E060E070E080E090E000E2DE
:102060000E940128242935294629572928833983A4
:102070004A835B836C837D838E839F83DF91CF91C3
:102080000F91BF90AF909F908F907F906F905F90D7
:102090004F9008950F93CF93DF93EC0148815981BE
:1020A0006A817B8188E090E00E94D3282881398171
:1020B0004A815B816C817D818E819F8100E20E94DB
:1020C0001C28622F83E290E00E94C128DF91CF910B
:1020D0000F910895AB01BC018FE090E00C94D328E0
:1020E000AB01BC0183E190E00C94D328682F8EE013
:1020F00090E00C94C1280895FECF08950895FECF76
:102100000895E82FF0E0EE0FFF1FE25FFC4F8081A3
:1021100091810895089580EA8A95F1F7089500C0A5
:102120000895F9CF0895F894E82FE295EF70F0E064
:1021300031A1282F2F7081E090E001C0880F2A95EF
:10214000EAF7982F9095932391A392A1892B82A3CC
:10215000789408950F931F93CF93DF93C2EBD1E050
:1021600089918F3F09F0DFDF81E0C73BD807C1F7D6
:10217000C3EAD1E002EB11E089918F3F09F0D3DF90
:102180000C171D07C9F7DF91CF911F910F9108958B
:10219000AF92BF92DF92EF92FF920F931F93CF9374
:1021A000DF938C01D62EC62FD0E0CE018E549E4FE9
:1021B0007C01FC0120812F3F09F449C0F894E22FF3
:1021C000E295EF70F0E031A12F7081E090E001C066
:1021D000880F2A95EAF7932F982B91A392A18095C7
:1021E000892382A378949BDFE3EAF1E041E050E0A9
:1021F000B12CA12C21912F3FA1F1A22FA295AF705C
:10220000B0E090968C9190E02F7002C095958795E4
:102210002A95E2F780FD25C0CA01A82AB92A440FF1
:10222000551F81E0E23BF80729F7F70180818F3FD6
:1022300009F079DF61E0A114B10409F460E08D2DAB
:1022400070DFCC0FDD1FC00FD11FB982A882DF91D4
:10225000CF911F910F91FF90EF90DF90BF90AF90C3
:10226000089590E080E0D9CF75DF8AE0EEE0F3E0FA
:10227000DF01982F1D929A95E9F7E4E0F3E0DF0182
:102280001D928A95E9F785E039D036CFAAE0B0E013
:10229000ECE4F1E10C94D7278E010F5F1F4F8AE029
:1022A000F80111928A95E9F7F12C6F2DC80170DFC2
:1022B000F394F5E0FF12F9CF4AE050E0B80184E072
:1022C00093E00E94992821E0009709F420E0892BEF
:1022D00041F08AE0F801A4E0B3E001900D928A9504
:1022E000E1F745E06EE073E084E093E008D0182F5A
:1022F00006DF812F2A96E5E00C94F3270895B0E0DD
:10230000A0E0E5E8F1E10C94D4276C017B01042FF7
:10231000C22F222379F081E08093CB020E94982083
:102320009093CA028093C90280E0CDB7DEB7E8E09F
:102330000C94F027D091CB02DD23B1F38091C90238
:102340009091CA020E942920059770F310E0000FB7
:10235000111FA801B601C7010E949928892B31F0ED
:10236000A801B601C7010E94A628CD2F1092CB026A
:102370008C2FDBCF6DCB08950E9432200E942B2240
:102380003ADB0E9443225BDB0E944C220E944F22D8
:10239000F1DF0E9465223DDBF9CF9093EB01809342
:1023A000EA0108950F931F93CF938C01FB01C58120
:1023B000CC2309F43BC09AD98272F801E052F84765
:1023C000EB30F10530F4E75EF64D0C949927A3D578
:1023D000C0E08C2FCF911F910F910895882321F099
:1023E0008ED5F6CF8823E1F37ED5F2CF882321F076
:1023F00022D2EECF8823E1F313D2EACF882321F053
:1024000034D2E6CF8823E1F323D2E2CF882321F030
:1024100046D2DECF8823E1F335D2DACF882321F00C
:10242000F1D0D6CF8823E1F3DED0D2CFC1E0D1CF37
:10243000EF92FF920F931F93CF93DF939B01682F2F
:1024400031110EC0442329F0E82FF0E0EE50FD4F8B
:102450006491762F862FCDB7DEB7E6E00C94F22795
:10246000C32FD0E0E82FF0E0442321F0EE50FD4FE1
:10247000E491F0E046E0249FC00111240FEF10E04A
:10248000B8010E945027AB01822F90E0880F991F5E
:1024900025E5249FB001259F700D1124861B970B05
:1024A000982F990F980FB8016C1B7D0B6E9FD00170
:1024B0006F9FB00D7E9FB00D11248B2F939F9001C5
:1024C0001124232F3327B801621B730B6E9F9001D9
:1024D0006F9F300D7E9F300D11247801E91AF108AD
:1024E000EC9EB001ED9E700DFC9E700D1124672FC7
:1024F0007727061B170B0E9FE0010F9FD00D1E9F25
:10250000D00D11247D2F9E2F4230510599F048F4B3
:102510004115510569F04130510581F07B2F832F22
:1025200007C04430510569F080F046305105B1F7DD
:10253000692F91CF9B2F8D2F7E2FFACF7E2F932F38
:10254000F7CF9D2F7B2F8E2FF3CF732F9B2FFBCF9A
:1025500041E06ECF0895FCCF089590910B01291BA7
:10256000922FE091E401F091E501242F462F682F8E
:10257000892F90E009950895CF93DF93762FE90195
:10258000682F842FE8DF962F672F9E01482F892F11
:10259000E4DFDF91CF91089580911803982F9C7FFD
:1025A00029F4837084608093180308958C3AE8F3CB
:1025B0008370886AF8CFE8E1F3E085E080831182D8
:1025C0008FEF828383831482CF01CDC990911C0346
:1025D000933018F49F5F90931C03882319F088E1CF
:1025E00093E0C1C9089581E0F1CF90911C03992334
:1025F00019F0915090931C03882319F088E193E01F
:10260000B2C9089581E0F1CF0F931F93CF938091CA
:10261000180380FF09C0E091E801F091E9010995F4
:10262000CF911F910F910895C0910D010091E40188
:102630001091E50180910E01C81768F780910B0198
:102640009C2F981B892F20E040E060E090E0F8018B
:102650000995CF5FEFCFEF92FF920F931F93CF9328
:10266000DF93D82F162F042F8091180380FF0BC003
:10267000C0910D01E090E401F090E50180910E0120
:10268000C81730F0C1DFCDB7DEB7E6E00C94F22713
:1026900080910B019C2F981B892F202F412F6D2F8C
:1026A00090E0F7010995CF5FE9CF762F909118035D
:1026B00090FF08C0682F842F4EDF962F672F482F7A
:1026C000892FC9CF0895CF93DF93EC01EC81F0E01F
:1026D000E351FE4F4491E8E1F3E062818181E5DF5F
:1026E0008C818F5F8C83DF91CF910895CF93DF939F
:1026F000EC01E8E1F3E0438162818C81D6DF8C81DB
:102700008F5F8C83DF91CF910895CF93DF93EC019E
:1027100040911B039C81892F817090FD842F692F2C
:10272000627091FD642F92FF40E095DF8C8190E014
:102730000196877099278C83DF91CF910895B0E03F
:10274000A0E0E5EAF3E10C94D527D82FF62E042F6C
:10275000E22E9091180390FF21C0E92FE695E695AF
:10276000AE2FB0E0A954BE4F8C918093DC029C7FC9
:102770009430C9F46D2F7F2D842FEDDE962F672FB7
:10278000482F892F68DFD0931903F0921A03009322
:102790001B03EE2019F088E193E0E5D8CDB7DEB752
:1027A000E7E00C94F127823019F400911B03EBCF82
:1027B000863019F4D0911903E6CF8930D9F38931E5
:1027C00011F7E9518E2F8170D82EE695F0E0E35194
:1027D000FD4FC49110E060910F01161710F014DF47
:1027E000D2CF1C9FC001112470E00E9450278D2F72
:1027F000D1100BC0860F20910D01210F3327331FFD
:10280000402F6F2DB9DE1F5FE6CF861BF4CFE8E1C6
:10281000F3E09181282F4381628188E0890F8FCF77
:1028200081E0F5CFE8E1F3E09181282F43816281D7
:1028300088EF890F84CF81E0F5CFE8E1F3E0628192
:1028400028E0620F08F46FEF282F4381818177CF52
:1028500081E0F3CFE8E1F3E0628128E0621B08F455
:1028600060E0282F438181816ACF81E0F3CFE8E1E6
:10287000F3E0438128E0420F08F44FEF282F6281F4
:1028800081815DCF81E0F3CFE8E1F3E0438128E08F
:10289000421B08F440E0282F6281818150CF81E003
:1028A000F3CF20E04CCF9091180390FF10C021117E
:1028B0000EC090910B019195E091E401F091E5013A
:1028C000242F462F682F892F90E009959DCE0895DB
:1028D000CF93762FC22F9091180390FF09C0682FD5
:1028E000842F39DE962F672F2C2F482F892FDBDF7F
:1028F000CF910895EF92FF921F93CF93DF93EC0156
:1029000010E0EE24EA94F12C60910F01161768F0A4
:102910007BDE9A818C8190FF1DC08F5F8C83DF915D
:10292000CF911F91FF90EF90089520910D01210FFD
:102930003327331F70E0C7010E946427962F8C81D4
:1029400040911B0360911A03199F800D112414DE1E
:102950001F5FDACF8150E2CFB0E0A0E0E2EBF4E11C
:102960000C94D327FC018281DFEF80FFD1E0C0E02F
:102970000091E4011091E50180910F01C81790F0DA
:1029800043DE8091CD02D13009F04CC0811102C0EC
:1029900080910F0181508093CD02CDB7DEB7E9E081
:1029A0000C94EF2780910D0190910B01891B8C0FE6
:1029B00020E040E060E090E0F801099594E0E92E25
:1029C000F12CB12CCC2ED12C8091CD028B0D8230EC
:1029D0003CF587FF03C090910F01890F082E000C72
:1029E000990BC816D906A9F420910D012C0D3D2D87
:1029F000311D80911B038E9DA0018F9D500D1124D0
:102A0000559547955595479560911A0380911903FF
:102A1000B3DDBD0EF1E0EF1AF108B1F6CF5FACCF38
:102A200080E0DCCF90E0019660910F0170E00E94A1
:102A30006427B1CF0F931F93CF93C0910D010091E5
:102A4000E4011091E50180910E01C81748F1C0E042
:102A50000091E4011091E50160910F01C61768F142
:102A6000D3DD209109018091CC02820F8093CC02AA
:102A700090910A01920F90930A01191654F4082EAE
:102A8000000C990B40910F014150550B841795078D
:102A90001CF0219520930901CF911F910F9108956A
:102AA00080910B019C2F981B892F20E040E060E073
:102AB00090E0F8010995CF5FC6CFEC2FF0E070E011
:102AC000CF010E94642720910D01820F2091CC023A
:102AD000022E000C330BE217F3079CF020910A0141
:102AE000022E000C330B2E173F075CF0282F30E02E
:102AF00040911B0360911A03809119033DDDCF5F64
:102B0000ABCF90910B01891B20E040E060E090E0AA
:102B1000F8010995F4CFB0E0A0E0E1E9F5E10C940B
:102B2000D027EC014C81042F10E09801D8010E94BD
:102B3000A5279B01AC010E94BA274B015C01E0E292
:102B4000F0E0E01BF10BA5E5B0E0AC019B010E94B9
:102B5000BA276B017C019F01DF010E949F279B0127
:102B6000AC010E94C4279B01AC01280D391D4A1DF0
:102B70005B1DC701B6010E947727F22E822F90E0DD
:102B800039E23F1518F143E0249F90011124359557
:102B90002795122F109500E085E5E82EEF1880911B
:102BA0000F01081718F130DD9C8181E0992319F09D
:102BB000903219F48FEF8093080180910801890FFA
:102BC0008C83CDB7DEB7ECE00C94EC2725E530E044
:102BD000A901481B590BCA019A01220F331F280F64
:102BE000391F37FFD4CF2F5F3F4FD1CF8E2D01FD3F
:102BF0008F2D20910D01200F3327331F412F60911E
:102C00001A03BADC0F5FCBCF0F931F93CF93DF93E1
:102C10008C01D0E0C0E090910F019C171D0609F0D7
:102C20006CF4F2DCF801848190E0019681709927C0
:102C30008483DF91CF911F910F910895F801448112
:102C400020910D012C0F3D2F311D60911A038091B1
:102C5000190396959C171D0641F03CF0442339F06A
:102C600040911B0389DC2196D6CF4423C9F340E071
:102C7000F9CFB0E0A0E0EFE3F6E10C94CC27FC0143
:102C80006280448081E08483EDEEF1E07490ECE6B4
:102C9000F2E0E491C0911B03C695C158D0E0CC0F7F
:102CA000DD1FCD2FDD27812C25E0922EAA24AA94AA
:102CB000B12C55245A94E719EE2EF12C80910F0176
:102CC000881630F0A1DCCDB7DEB7E0E10C94E82740
:102CD000C82CD12C82E0861568F09C9CF0019D9C4C
:102CE000F00D1124E253FD4F8091190380838091F0
:102CF0001A03818341101BC09C9CF0019D9CF00D28
:102D00001124E253FD4F1382128220910D012C0DEC
:102D10003D2D311D9C9CF0019D9CF00D1124E25332
:102D2000FD4F42816181808127DC8394C7CF9C9CC9
:102D300080019D9C100D112402531D4FF8018381C9
:102D40008823F1F081508383859DC0011124648123
:102D500070E00E945027FB01FF27E351FE4F849152
:102D6000E82FE719E59DC0011124B7010E94502703
:102D700080911B03689FB0011124F8017283C5CFB5
:102D80000E947E28B5010E9464278C179D070CF0D5
:102D9000BCCFF2E0F61598F40E947E28B5010E949F
:102DA0006427F80180830E947E2820911A032695CB
:102DB000622F70E00E946427280FF80121839C9CF9
:102DC000F0019D9CF00D1124E253FD4F1282809181
:102DD0001B03893C58F088EC9C9CF0019D9CF00DF5
:102DE0001124E253FD4F848383838FCF8431A0F776
:102DF00084E1F2CFE8E1F3E080818E7F8083CF0130
:102E00000E94B30C1092DD02FFCBE8E1F3E0808179
:102E10008E7F80831092DD02F7CB1092DD028091CD
:102E2000DA02811109C081E08093DA0280911803EF
:102E300081708093D902E9CF089560911803669557
:102E4000669570E04BE050E080E191E00E948C28B4
:102E5000892B19F481E08093DD020E9498209093E1
:102E6000D4028093D30208959091180390FF25C057
:102E70009370811123C0946090931803662321F00E
:102E800088E193E00E94B30C609118036695669503
:102E900070E04BE050E080E191E00E948C28892BAB
:102EA000A9F01092DD0281E08093D60240911B03CD
:102EB00060911A0380911903F4CC08958B3210F0BD
:102EC000986ADACF880F880F982BD6CFB6DFEBCF72
:102ED000682F909118039695969581E0890F8B3213
:102EE00008F081E0C1CF81E0F3CF682F9091180303
:102EF000969596958FEF890F09F48AE2B5CF81E018
:102F0000F4CF61E0B1CFE8E1F3E0808181608083BC
:102F100086958695F6CF8091180380FF01C06ACF11
:102F2000F2CF60E0A1CF8091DB0281111FC088E168
:102F300093E00E94B10C809118038C7F29F43BDB55
:102F400088E193E00E94B10C27DB1092DD02E09152
:102F5000E201F091E30109958091180380FF03C01D
:102F600086958695DEDF81E08093DB020895E8E1B7
:102F7000F3E080818160808386958695D2CF109220
:102F8000DA028091D9028111F2DF57CF0F931F939C
:102F9000CF93DF938091DD028823C1F18091DC0221
:102FA000E0911803E695E695E81BE093D5028230A0
:102FB00091F5F0E0E751FE4FE491CE2FD0E003E62B
:102FC00013E18091D602882361F01092D6020E940C
:102FD00098209093D4028093D3021092D80210923A
:102FE000D7020E949820E091D302F091D4028E1B68
:102FF0009F0B8F3F9F4750F4EC0FFD1FF093D402BF
:10300000E093D30283ED92E0F8010995DF91CF912F
:103010001F910F910895863049F4F0E0EA51FE4F78
:10302000E491CE2FD0E006E713E1CBCF893051F405
:10303000E695F0E0ED51FE4FE491CE2FD0E00AE7A7
:1030400014E1BFCF8F3051F4E695F0E0E052FE4F2F
:10305000E491CE2FD0E00CEA14E1B3CF853149F4EE
:10306000F0E0E352FE4FE491CE2FD0E00AE115E10B
:10307000A8CFC8E2D0E00BE815E1883109F4A1CF70
:10308000833239F4EBEDF1E0C591D49105E813E119
:1030900098CFC4EFD1E004E016E1843209F491CF77
:1030A000C0EDD7E00AEA12E1853209F08ACF8E2F0F
:1030B00063E00E944427E92FF0E0E852FE4FE491DC
:1030C000CE2FD0E009E316E17CCF08955FCF0895BD
:1030D0003F9A0895FC01EE0FFF1FE80FF91FE05E15
:1030E000FC4F6183408322830895E0E2F3E0818313
:1030F00060834283089538B13F7728B120684FB785
:10310000F89480E293E0FC015191CF0168E028B986
:10311000000000C057FF38B9550F000000C000C0C4
:1031200000C038B900C06A9591F7F3E083329F0779
:1031300051F74FBF8FE594E00197F1F700C0000011
:1031400008950C94A30C089580E00E948110817072
:1031500008959CD82FEF86E791E021508040904061
:10316000E1F700C0000092D8EFDF882319F0E9DF13
:103170000C94D4200895EDCF0895EBEFE80FEF33D2
:1031800008F066C0F0E0EC5DF64D0C9499270E94C3
:10319000A10C81E008958091C802807F8093C802CD
:1031A00081E08093E10208950E94C003F2CF9091E4
:1031B000C802892F8E7F90FF81608093C80280FDB6
:1031C000E8CF817F8093C802E4CF9091C802892F15
:1031D0008D7F91FF82608093C80281FFDACF80915A
:1031E000C8028160EFCF9091C802892F8B7F92FF38
:1031F00084608093C80282FDF2CFCBCF9091C80249
:10320000892F877F93FF88608093C80283FDE7CF73
:10321000C0CF0E94440790910203892F97FB87F942
:10322000805880930203B5CF81E090E00E948C0724
:103230000E944407AECF895321E030E0A90102C0CB
:10324000440F551F8A95E2F7CA01F0CF8D51F4CF94
:1032500080E0089580E00895FDCF0895CF93C82FB2
:103260008091E1028130A9F0882331F0823089F128
:103270001092E10280E00BC00E94760B8232D1F7FF
:103280008C2FE8DF811119C08C2F77DF8170CF91EF
:1032900008950E94760B823299F38C2FDDDF811125
:1032A0000AC0C43199F060F4CB3029F0C03171F715
:1032B00082E08093E10281E0E9CF81E090E0E6CF17
:1032C000C93221F0C833B9F380E0E0CF1092E102B7
:1032D000FBCFC93209F440C0F0F4C431E9F1A8F4DD
:1032E00081E0C730A1F68093220184E1809321011F
:1032F0008AE0809320018EE180931F0188E0809313
:103300001C0188E280931B0104C082EE8C0F8A307E
:1033100070F181E0BCCFC03509F450C0B8F48AE048
:10332000CF34B9F7E091DE02F091DF02309789F3F4
:103330002081082E000C990B820F911D8F3F910563
:1033400009F00CF43FC08FEF8083E3CFC135C1F1AA
:1033500081E0C23539F39BCF8091E0028823C9F226
:103360001092E0021092DF021092DE02D2CFCD5115
:10337000C093E002C330C9F048F4C13099F081E253
:1033800091E0C23051F01092E002C3CFC53099F005
:1033900078F08BE191E0C630B1F79093DF02809333
:1033A000DE02B7CF82E291E0F8CF80E291E0F5CF84
:1033B0008FE191E0F2CF8CE191E0EFCF86EFB2CFD9
:1033C0008FEFB0CF97FFC0CF1082A3CFCF93DF9303
:1033D000EB0186319C4701F50E94760B9D81992374
:1033E00091F08A7A91E009F490E09093E2028111E1
:1033F00008C089E242D50E94210C80E0DF91CF9184
:10340000089585E3F7CF8091E202811103C089E23C
:103410004BD5F1CF85E3FCCF81E0F0CFCF93DF93A5
:10342000EC01FB018581882309F4CEC09E01305751
:103430002332310508F0AEC082E093E00E94AD0C6B
:10344000FE01E150F047E232F10520F4ED59F64D6E
:103450000C9499278091020381608093020393C0AA
:10346000809103038860809303038DC080910203E1
:103470008260F3CF809102038460EFCF80910203DA
:103480008860EBCF809103038160EDCF80910303CF
:103490008260E9CF809102038061DFCF80910203D7
:1034A0008062DBCF809102038064D7CF0E94440703
:1034B000809102038068D1CF809102038C60CDCFD0
:1034C000809103038360CFCF809102038E7FC5CFAD
:1034D00080910303877FC7CF809102038D7FBDCF8B
:1034E000809102038B7FB9CF80910203877FB5CF94
:1034F000809103038E7FB7CF809103038D7FB3CF7D
:10350000809102038F7EA9CF809102038F7DA5CF8A
:10351000809102038F7BA1CF0E9444078091020318
:103520008F779BCF80910203837F97CF8091030396
:103530008C7F99CF8091020382FB992790F921E03B
:10354000922790FB82F990FB83F987CF8091030348
:10355000982F909591708E7F892B90FB81F983CF66
:1035600090910203892F8F7B96FF806476CF0E9413
:10357000440790910203892F97FB87F980586DCFFC
:1035800081E00E94B50C82E093E00E94AF0C0E94A3
:10359000440780E0DF91CF91089580E0F2CF9091D1
:1035A0000203892F8F7E94FF806157CF9091020391
:1035B000892F8E7F90FF816050CF90910303892FD8
:1035C000877F93FF88604FCF81E0E4CF282F35EBD2
:1035D0002303C001112497FF04C080589109892F4B
:1035E000089580589F4FFBCF8091E90280FF0DC066
:1035F0006091200170E0660F771F6038710570F5EB
:103600006115710569F1862F089581FF07C06091EA
:10361000200184E0689FB0011124EFCF6091200168
:1036200082FD0AC08091E8028823A9F020911F0141
:1036300060912001821710F088E0ECCF869FC001D6
:10364000112433E0880F991F3A95E1F7622F70E05B
:103650000E946427D2CF68E070E0D5CF8FE708954D
:1036600081E008958091E90280FF0CC060911C0107
:1036700070E075956795759567956115710549F1C8
:10368000862F089581FF06C060911C0170E075953A
:103690006795F3CF60911C0182FD0BC09091E7020A
:1036A0009923A1F060911B0180911C01961738F0BD
:1036B000682F70E06038710500F38FE70895899FE7
:1036C000C001112470E00E946427F4CF61E070E033
:1036D000D7CF81E008958D3C29F486DF81958093D2
:1036E000ED0208958E3C11F47FDFF9CF8F3C29F471
:1036F0007BDF81958093EC020895803D11F474DFA7
:10370000F9CF893D21F4AEDF8093EE0208958A3D22
:1037100019F4A8DF8195F8CF8B3D29F4A3DF8195BB
:103720008093EF0208958C3D11F49CDFF9CF9FE266
:10373000980F983070F4815D990B21E030E001C062
:10374000220F8A95EAF78091EB02822B8093EB029D
:1037500008958D3D31F48091E90281608093E90202
:1037600008958E3D21F48091E9028260F7CF8F3D6C
:10377000B9F78091E9028460F1CF4091EC028D3C71
:1037800059F48091ED0287FF0DC01092ED024111B6
:103790000BC01092E80208C08E3C81F48091ED02CB
:1037A00018169CF3442381F08091EE029091EF0271
:1037B000892B09F05AC01092E70208958F3C49F412
:1037C00047FFF0CF1092EC028091ED028111ECCF17
:1037D000E0CF803D19F41416ACF3E4CF9091EE02E3
:1037E000893D29F41916F4F61092EE02DBCF8A3DDA
:1037F00019F497FFD7CFF8CF9091EF028B3D29F4C2
:1038000097FFD0CF1092EF02CDCF8C3D19F419164F
:10381000CCF3C8CF9FE2980F983090F4815D990B5C
:1038200021E030E0B90102C0660F771F8A95E2F708
:10383000CB0180959091EB0289238093EB02B2CF6C
:103840008D3D31F48091E9028E7F8093E902AACF09
:103850008E3D21F48091E9028D7FF7CF8F3D09F0F5
:10386000A1CF8091E9028B7FF0CF089561D49C01B4
:103870009091EC028091ED02982B21F03093E602BA
:103880002093E5029091EE028091EF02982B21F0B7
:103890003093E4022093E3028AEE92E0E2C186E0F4
:1038A000EAEEF2E0DF011D928A95E9F71092E80254
:1038B0001092E7021092E9020895FC0182818111C1
:1038C0000EC0838181110BC08481811108C091E0F9
:1038D0008581811101C090E0892F8170089581E078
:1038E000FCCFA6E0B0E0E7E7FCE10C94D92786E046
:1038F000EAEEF2E0DE01119601900D928A95E1F771
:103900001092EC021092ED021092EE021092EF0271
:103910008B819C81892B81F08091E5029091E60258
:1039200098D3AC019091E8029923A9F180912101EB
:103930008417150608F43CC08D819E81892B89F07F
:103940008091E3029091E40284D3AC019091E7026C
:10395000992309F463C080911D018417150608F4AA
:103960006BC0BE016F5F7F4F8AEE92E0CDD28111B6
:1039700004C08AEE92E0A1DF811178DF86E0FE01CB
:103980003196AAEEB2E001900D928A95E1F7269663
:10399000E3E00C94F527209122018AE0289F900112
:1039A00011242417350740F69F5F9093E80202C068
:1039B0009F3FD1F71B81112351F016DE9FEF1116A7
:1039C0000CF491E0899F802D11248093EC021C81DE
:1039D000112351F009DE9FEF11160CF491E0899F3D
:1039E000802D11248093ED028091EC02882309F44C
:1039F000A3CF1091ED02112309F49ECFE7DD8823B8
:103A000049F08093EC02812FE1DD882329F0809337
:103A1000ED0292CF81E0F5CF81E0F9CF20911E0138
:103A20008AE0289F900111242417350708F099CFC8
:103A30009F5F9093E70202C09F3FD1F71D81112342
:103A400051F010DE9FEF11160CF491E0899F802D4C
:103A500011248093EE021E81112351F003DE9FEFAB
:103A600011160CF491E0899F802D11248093EF02B0
:103A70008091EE02882309F474CF1091EF02112394
:103A800009F46FCFA3DD882349F08093EE02812FE4
:103A90009DDD882329F08093EF0263CF81E0F5CF8D
:103AA00081E0F9CF0F931F93CF93DF93C42FD22FD1
:103AB000FC0185818823C1F04093F20239D39093B1
:103AC000F1028093F00280E28C0F883040F4C770DE
:103AD00081E001C0880FCA95EAF70E943005DF91A6
:103AE000CF911F910F9108951091F202141331C0DC
:103AF0008091F0029091F102ACD2883C910548F59A
:103B0000C0E2CD0F1D17B9F080E2810F883040F47C
:103B1000177081E001C0880F1A95EAF70E943505F9
:103B2000C83048F481E09D2F977001C0880F9A95A6
:103B3000EAF70E943005802F0E942905C83078F6E8
:103B4000D77081E001C0880FDA95EAF70E94350549
:103B5000C6CF80E28C0F883010F6C77081E001C0BC
:103B6000880FCA95EAF7F2CF0F93DB0188519C4783
:103B70008730910598F5FC01EB57F64D0C94992789
:103B800006E221EE41EE6AE17CE7CD018BDF80E0C9
:103B90000F91089507E225EE45EE6BE17CE7F5CF46
:103BA00006E221EE40EE68E17CE7EFCF07E225EE8A
:103BB00044EE69E17CE7E9CF06E221EE42EE6CE1FA
:103BC0007CE7E3CF07E225EE46EE6DE17CE7DDCF53
:103BD00008E221E045EE6EE17CE7D7CF15968C91A7
:103BE000882319F01092F202D3CF81E0D1CF9093C5
:103BF000F8028093F7020895F2D191E0813009F044
:103C000090E0892F0895E091F702F091F802309743
:103C100039F00190F081E02D309711F00995089569
:103C200080E00895E091F702F091F802309731F0CA
:103C30000280F381E02D309709F009950895E09115
:103C4000F702F091F802309759F024813581232B47
:103C500039F026E0DC012C930480F581E02D0995F4
:103C60000895E091F702F091F802309759F026811B
:103C70003781232B39F022E0DC012C930680F78179
:103C8000E02D09950895A3E0B0E0E9E4FEE10C948D
:103C9000DA272091F5023091F60228173907B1F0A2
:103CA0009093F6028093F502E091F702F091F8020A
:103CB000309761F00084F185E02D309739F023E0F2
:103CC00029839B838A83CE01019609952396E2E09E
:103CD0000C94F627A3E0B0E0E0E7FEE10C94DA27CD
:103CE0002091F3023091F40228173907B1F0909334
:103CF000F4028093F302E091F702F091F80230971A
:103D000061F00084F185E02D309739F024E02983BB
:103D10009B838A83CE01019609952396E2E00C9459
:103D2000F627CF93DF93C0910601D0910701229629
:103D300063DF882381F08091020387FF0CC0C0916C
:103D40000401D091050122969EE180E0915028F473
:103D5000DF91CF91089596E0F8CF29912223B1F316
:103D60008F5FF4CFCF93C82F811102C080E023C0B2
:103D700043DF882311F18091020387FF1EC0EC2FDF
:103D8000E695E695E695EE3188F7809104019091ED
:103D90000501E80FF92FF11D228130E0C77081E0A5
:103DA00090E002C0880F991FCA95E2F728233923B3
:103DB00081E0232BD9F2CF91089580910601909153
:103DC0000701FC013296089621912C1721F0E81783
:103DD000F907D1F7CBCF81E0EECF9C01FC01329601
:103DE0009FEF80E04191461751F09F3F19F4411138
:103DF00001C0982F8F5F8630A9F79F3F09F408957F
:103E0000290F311D97FD3A95F90162830895FC0150
:103E1000329608962191261303C0DF0111971C9258
:103E2000E817F907B9F70895E62FE695E695E695C0
:103E3000EE3168F4E80FF92FF11D677021E030E0F2
:103E400001C0220F6A95EAF78281822B828308954E
:103E5000E62FE695E695E695EE3170F4E80FF92F3A
:103E6000F11D677021E030E001C0220F6A95EAF78A
:103E700020958281282322830895CF93C82FBCDE0A
:103E80006C2F882359F08091020387FF07C080912F
:103E9000040190910501C8DFCF910895809106013A
:103EA000909107019ADFF8CFCF93C82FA5DE6C2F32
:103EB000882359F08091020387FF07C08091040195
:103EC00090910501C5DFCF910895809106019091F1
:103ED00007019DDFF8CF90DE882379F080910203FF
:103EE00087FF0BC0E0910401F091050132968EE14D
:103EF000DF011D928A95E9F70895E0910601F0919E
:103F00000701329686E0F4CFDC01FB0111969C910B
:103F100011978181981322C012968C911297882351
:103F200019F0928189131AC013968C9113978823E4
:103F300019F09381891312C015968C9115978823D7
:103F400019F0958189130AC014969C91992321F048
:103F500081E02481291303C080E001C081E08170E9
:103F600008950895FECF089581110CC081E08093DB
:103F70002601609123017091240180912501909187
:103F80002601F0CF82E0F3CF83E080932601609199
:103F90002301709124018091250190912601E2CFA7
:103FA000E3CF089581E08093260160912301709111
:103FB00024018091250190912601D4CFF3CF08955B
:103FC00091E0811101C090E090932501609123015F
:103FD000709124018091250190912601C3CF809199
:103FE000250108958093240160912301709124019B
:103FF0008091250190912601B5CF809124010895EB
:104000008093230160912301709124018091250107
:1040100090912601A7CF80912301089508950895D6
:10402000FECF089508950895F9CF0895CF93FADF4C
:104030000E944611F8DFC0E08C2F0E948110892B6E
:1040400031F4CF5FC530C1F780E0CF91089581E0B2
:10405000FCCFCF93DF93EC016BD08C1B9D0BDF91DA
:10406000CF91089585B7806885BF85B7806885BF83
:1040700008951F921FB61F9211248F939F93AF93A1
:10408000BF938091F902811113C080912303909115
:104090002403A0912503B09126034196A11DB11DD3
:1040A0008093230390932403A0932503B0932603C6
:1040B000BF91AF919F918F911F901FBE1F90189538
:1040C00080912B03843031F10E9430041092F90268
:1040D00088E190E020E40FB6F894A8958093600002
:1040E0000FBE2093600083B7817F846083BF83B756
:1040F000816083BF7894889583B78E7F83BF0FB626
:10410000F894A89580916000886180936000109277
:1041100060000FBE08950E9444070C94360482E0AC
:1041200084BD93E095BD9AEF97BD80936E0008958E
:104130002FB7F8948091230390912403A091250335
:10414000B09126032FBF08952FB7F89460912303F1
:104150007091240380912503909126032FBF089529
:1041600078941F921FB61F9211248F939F93AF9341
:10417000BF938091230390912403A0912503B091D4
:1041800026030196A11DB11D809323039093240360
:10419000A0932503B0932603BF91AF919F918F9178
:1041A0001F901FBE1F90189581E08093E00080E271
:1041B0008093D8001092C9008FE19EE40197F1F737
:1041C00000C0000087E090EBDC0180933403909303
:1041D0003503A0933603B093370388E19CE00FB614
:1041E000F894A895809360000FBE90936000FFCF75
:1041F00088E19CE00FB6F894A895809360000FBE0C
:1042000090936000FFCF9B01BA0190912B039430F3
:10421000E1F48F708093E9009FEF8091E800915066
:1042200085FD06C085ED8A95F1F700009111F5CF67
:104230008091E80085FF09C050E040E0C901BAD193
:104240008091E8008E778093E800089543E050E085
:10425000BC0182E0D8CF46E050E0BC0182E0D3CF81
:1042600040E250E0BC0182E0CECFCF93DF93EC017F
:10427000B6DE48E050E0BE0181E0C5DF88E0FE0127
:10428000AAEFB2E001900D928A95E1F7DF91CF910C
:10429000089580912A03811107C01AD371D38091A8
:1042A000E20084608093E200089510922A0308954A
:1042B00079DE81E085CE6091270381E0611101C044
:1042C00080E062CE90912B0381E0943009F080E091
:1042D0006091270365CE42E061EC81E075D242E255
:1042E00061EC82E071D290912B0381E0943009F06F
:1042F00080E06091270338CE80912D03833009F44C
:104300005EC030F48130C1F1823009F494C0089568
:104310008A3009F483C08B3009F46BC0893009F00E
:104320004DC080912C03813209F048C08091300348
:1043300090913103029708F041C08091E800877F97
:104340008093E8008091E80082FF34C09091F300F0
:104350008091F200029731F48091F100813011F0E8
:10436000863019F48091F1003DDE8091E8008B7772
:104370008093E8005DD222C080912C03813AF1F451
:104380008091E800877F8093E800809130039091CE
:104390003103892B59F468E08AEF92E070E057D13D
:1043A0008091E8008B778093E800089560E090E0CA
:1043B00080E0F4CF80912B038111C4CF08958091C8
:1043C0002C03813AD9F78091300390913103892BE6
:1043D000A9F78091E800877F8093E8008091E8004A
:1043E00080FFFCCFFCDD8093F1008091E8008E77A8
:1043F000BFCF80912C03813209F7809130039091D7
:104400003103892BD9F68091E800877F8093E800FB
:104410000FD280912E03D4DD0C94440780912C039D
:10442000813261F68091E800877F8093E80000D2B6
:1044300080912F03E5CD80912C03813A09F0BECF06
:104440008091E800877F8093E8008091E80080FFFA
:10445000FCCFE1DDC8CF84B7877F84BF0FB6F89467
:10446000A895809160008861809360001092600040
:104470000FBE80E890E00FB6F894809361009093AF
:1044800061000FBE9BCD24D27BD2E2EEF0E08081B2
:10449000846080837894DEC487E291E0A8CB809129
:1044A0002B03853029F480912B03853011F033CE16
:1044B000089506DEBBDD8823B1F3809129038823AC
:1044C00091F362D00E944407EECF08959A01409183
:1044D00032035091330300C0492F55274330510513
:1044E00019F168F44130510509F444C042305105D6
:1044F00009F445C090E080E050E040E025C0413242
:10450000510549F142325105A9F784E490E049E2AE
:1045100055E061157105C1F086EB90E043E754E08A
:104520006130710589F0E6CF99278130910581F0DE
:10453000009729F00297F1F6E2EFF3E002C0E2E221
:10454000F4E0849190E0AF01F90151834083089534
:10455000E4E0F4E0F6CF89E090E048E354E0611550
:10456000710591F389E090E041E554E06130710517
:1045700059F3C0CF82E190E041E654E0E5CF8BE310
:1045800090E046E254E0E0CF80E189BD82E189BD60
:1045900009B400FEFDCF8091D8008F7D8093D800B4
:1045A0008091E00082608093E0008091E00081FDD6
:1045B000FCCF0895AF92BF92CF92DF92FF920F93FC
:1045C0001F93CF93DF936C01EB018A0150D1F82E3A
:1045D000811123C00115110539F0F8018081918105
:1045E000C81BD90BC80ED91EB12CA12C2097A9F03D
:1045F0008091E80085FD21C08091E8008E7780934E
:10460000E80001151105A1F0F80180819181A80E43
:10461000B91EB182A08285E0F82E8F2DDF91CF9157
:104620001F910F91FF90DF90CF90BF90AF900895B2
:104630001ED18823D9F2F82EF0CFF60181916F01B7
:104640008093F1002197FFEFAF1ABF0ACFCFFC0193
:10465000809132039091330386179707A0F061157C
:10466000710529F49091E8009E779093E80090E01E
:104670006115710551F4911108C08091E80082FF25
:1046800034C080E00895BC01F2CF80912B038823D1
:10469000C1F18530C1F18091E80083FD30C0809187
:1046A000E80082FDEACF8091E80080FFE1CF8091B1
:1046B000F3002091F200382F6115710519F02830B0
:1046C000310558F091E02830310509F090E0209153
:1046D000E8002E772093E800CBCF81918093F10002
:1046E000615071092F5F3F4FE7CF80912B038823E3
:1046F00041F0853041F08091E80083FFBECF81E03A
:10470000089582E0089583E00895FC0180913203CA
:104710009091330386179707A0F06115710529F46E
:104720008091E8008E778093E80090E06115710534
:1047300051F4911108C08091E80082FF35C080E0FB
:104740000895BC01F2CF80912B038823C9F18530F5
:10475000C9F18091E80083FD31C08091E80082FDBD
:10476000EACF8091E80080FFE1CF8091F3002091B3
:10477000F200382F6115710519F02830310558F015
:1047800091E02830310509F090E08091E8008E77C3
:104790008093E800CBCF84918093F10031966150F3
:1047A00071092F5F3F4FE6CF80912B03882341F0A3
:1047B000853041F08091E80083FFBDCF81E008950E
:1047C00082E0089583E00895982F973028F08F7045
:1047D0008093E90081E008959093E900242F762FDB
:1047E00050E0981731F07091EC002091ED0050915D
:1047F000F00021FD02C09F5FE8CF3091EB003E7FCB
:104800003093EB003091ED003D7F3093ED0030911F
:10481000EB0031603093EB007093EC002093ED00DF
:104820005093F0002091EE0027FDE5CF80E0089541
:1048300080912C0387FF13C08091E80082FF06C09F
:104840008091E8008B778093E80004C080912B036F
:104850008111F2CF089580912B038823D9F38091A1
:10486000E80080FFF8CF8091E8008E77ECCF2091B0
:10487000E4003091E50095E6A9012091EC00822F3B
:10488000817020FF06C08091E80080FF06C080E0B4
:1048900008952091E80022FD1AC080912B038823FF
:1048A00089F0853089F08091EB0085FD0FC0209163
:1048B000E4003091E50042175307F9F29150E1F618
:1048C00084E0089582E0089583E0089581E00895EA
:1048D00067D06ED0E0EEF0E0808181608083E8ED0B
:1048E000F0E080818F77808319BCA7EDB0E08C91D8
:1048F0008E7F8C9380818F7E808310922A0308950F
:104900000F931F93CF93DF934BD052D0C8EDD0E0DD
:1049100088818F77888388818068888388818F7D6C
:10492000888319BC10922B0310922703109229033D
:104930001092280300EE10E0F80180818B7F8083C5
:1049400088818160888342E060E080E03DDFE1EEC5
:10495000F0E080818E7F8083E2EEF0E080818160F4
:104960008083808188608083F80180818E7F80834E
:10497000888180618883DF91CF911F910F91089585
:10498000E8EDF0E080818F7E8083E7EDF0E08081CC
:104990008160808384E082BF81E080932A03B0CF6E
:1049A000E8EDF0E080818E7F80831092E200089530
:1049B0001092DA001092E10008951F920F920FB644
:1049C0000F9211242F933F934F935F936F937F9395
:1049D0008F939F93AF93BF93EF93FF938091E100E9
:1049E00082FF0AC08091E20082FF06C08091E10050
:1049F0008B7F8093E1002DD28091DA0080FF18C078
:104A00008091D80080FF14C08091DA008E7F80935F
:104A1000DA008091D90080FF91C080E189BD82E1F8
:104A200089BD09B400FEFDCF81E080932B0331DC0A
:104A30008091E10080FF18C08091E20080FF14C0E7
:104A40008091E2008E7F8093E2008091E20080619D
:104A50008093E2008091D80080628093D80019BCD6
:104A600085E080932B0327DC8091E10084FF2AC03E
:104A70008091E20084FF26C080E189BD82E189BD8A
:104A800089B5982F917080FFFBCF8091D8008F7DE2
:104A90008093D8008091E1008F7E8093E100809127
:104AA000E2008F7E8093E2008091E200816080933B
:104AB000E20080912703882309F445C084E08093B5
:104AC0002B0300DC8091E10083FF27C08091E2008E
:104AD00083FF23C08091E100877F8093E10082E023
:104AE00080932B03109227038091E1008E7F8093A7
:104AF000E1008091E2008E7F8093E2008091E200ED
:104B000080618093E20042E060E080E05DDE8091C1
:104B1000F00088608093F000CBDBFF91EF91BF91B4
:104B2000AF919F918F917F916F915F914F913F9145
:104B30002F910F900FBE0F901F90189519BC1092D7
:104B40002B03B3DB75CF8091E30087FD93E0909357
:104B50002B03B7CF1F920F920FB60F9211242F93F2
:104B60003F934F935F936F937F938F939F93AF93F5
:104B7000BF93CF93DF93EF93FF93D091E900DF7062
:104B80008091EC00C82FC17080FDC0E81092E90050
:104B90008091F000877F8093F00078941ED010926F
:104BA000E9008091F00088608093F000CD2BCF70F9
:104BB000C093E900FF91EF91DF91CF91BF91AF9149
:104BC0009F918F917F916F915F914F913F912F9125
:104BD0000F900FBE0F901F901895AAE2B0E0E2EF81
:104BE000F5E2E7C18CE293E02091F100FC01219312
:104BF000CF01F3E084339F07B9F77EDB8091E800B3
:104C000083FF16C180912C0390912D039A3008F0F8
:104C10000FC1E92FF0E0E457F64D8BC1803899F0D1
:104C2000823809F005C1809130038F70873008F019
:104C3000FFC08093E9008091EB0085FB882780F915
:104C40001092E90006C080912803909129039111E8
:104C500082609091E800977F9093E8008093F10044
:104C60001092F1008091E8008E77DFC0882309F46C
:104C7000CDC0823009F0DCC080912E038111D0C0FC
:104C8000809130038F702FEF280F263008F0D0C0AE
:104C90008093E9002091EB0020FFC2C0933031F4F3
:104CA0008091EB0080628093EB00BAC09091EB00A2
:104CB00090619093EB0021E030E001C0220F8A95D3
:104CC000EAF72093EA001092EA008091EB008860F6
:104CD000EACF8111ADC010912E031F778091E300C0
:104CE0008078812B8093E3008091E800877F809318
:104CF000E8009EDD8091E80080FFFCCF8091E3001A
:104D000080688093E30082E0111183E080932B039D
:104D10008FC08058823008F08BC080912E03909114
:104D20002F038C3D23E0920799F583E08A838AE282
:104D300089834FB7F894DE01139620E03EE051E2FC
:104D4000E32FF0E050935700E49120FF03C0E29579
:104D5000EF703F5FEF708E2F90E0EA30B8F0C796AB
:104D60008D939D932F5F243159F74FBF8091E800B9
:104D7000877F8093E8006AE270E0CE01019667DCED
:104D80008091E8008B778093E80052C0C096E8CF0E
:104D90006091300370913103AE014F5F5F4F96DB3E
:104DA000BC01892B09F444C09091E800977F90934F
:104DB000E80089819A81A9DCE3CF8038C9F5809128
:104DC000E800877F8093E800809127038093F100BB
:104DD00049CF81112DC090912E03923048F58091DA
:104DE000E800877F8093E8009093270321DD80917E
:104DF0002703882311F084E005C08091E30087FD3C
:104E0000FACF81E080932B0366DA12C080912E03E3
:104E1000813071F481E0933009F080E080932903C0
:104E20001092E9008091E800877F8093E80000DD20
:104E30008091E80083FF0AC08091E800877F80931B
:104E4000E8008091EB0080628093EB00AA96E3E09B
:104E5000CCC00895CF9380912B03882399F0C09103
:104E6000E900CF709091EC00892F817090FD80E86F
:104E7000C82B1092E9008091E80083FDAEDECF7070
:104E8000C093E900CF910895991B79E004C0991F60
:104E9000961708F0961B881F7A95C9F78095089594
:104EA000AA1BBB1B51E107C0AA1FBB1FA617B70750
:104EB00010F0A61BB70B881F991F5A95A9F780956C
:104EC0009095BC01CD01089597FB072E16F4009430
:104ED00006D077FD08D0E4DF07FC05D03EF49095BE
:104EE00081959F4F0895709561957F4F0895A1E238
:104EF0001A2EAA1BBB1BFD010DC0AA1FBB1FEE1F54
:104F0000FF1FA217B307E407F50720F0A21BB30B9E
:104F1000E40BF50B661F771F881F991F1A9469F71A
:104F200060957095809590959B01AC01BD01CF0176
:104F30000895EE0FFF1F0590F491E02D099405D020
:104F4000332312F48A1B9B0B10C0A29FB001B39FA6
:104F5000C001A39F700D811D1124911DB29F700D82
:104F6000811D1124911D0895F0DFB7FF0895821B64
:104F7000930B0895EADFA59F900DB49F900DA49F19
:104F8000800D911D11240895B7FFF4CFF3DF821B2C
:104F9000930B08952F923F924F925F926F927F9260
:104FA0008F929F92AF92BF92CF92DF92EF92FF9239
:104FB0000F931F93CF93DF93CDB7DEB7CA1BDB0BE5
:104FC0000FB6F894DEBF0FBECDBF09942A8839888A
:104FD00048885F846E847D848C849B84AA84B98491
:104FE000C884DF80EE80FD800C811B81AA81B9819D
:104FF000CE0FD11D0FB6F894DEBF0FBECDBFED01B1
:105000000895002E083090F0982F872F762F652F67
:10501000542F432F322F22270850F4CF220F331F53
:10502000441F551F661F771F881F991F0A95B2F7E7
:10503000002D089597FD1094002E083098F0085028
:10504000232F342F452F562F672F782F892F912DFF
:10505000F4CF1594979587957795679557954795CC
:10506000379527950A95AAF71124002D08958F9258
:105070009F92AF92BF92CF92DF92EF92FF92CF9327
:10508000DF93EC01688179818A819B8161157105CB
:105090008105910521F464E279ED8BE597E02DE13E
:1050A00033EF41E050E09BD049015A019B01AC0134
:1050B000A7EAB1E45FDF6B017C01ACEEB4EFA501C0
:1050C000940164DFDC01CB018C0D9D1DAE1DBF1D65
:1050D000B7FF03C00197A109B04888839983AA83C9
:1050E000BB839F77DF91CF91FF90EF90DF90CF90C0
:1050F000BF90AF909F908F900895B9CF80E091E0DE
:10510000B6CFB0E0A0E08093000190930101A0939E
:105110000201B09303010895FC014150504030F06A
:1051200001900616D1F73197CF0108958827992766
:105130000895FB01DC0104C08D910190801921F4D8
:1051400041505040C8F7881B990B0895FB01DC01C2
:1051500002C001900D9241505040D8F70895F9993E
:10516000FECF92BD81BDF89A992780B50895A6E13A
:10517000B0E044E050E025C0A8E1B0E042E050E0FB
:1051800020C0262FF999FECF92BD81BDF89A0197D4
:1051900000B4021639F01FBA20BD0FB6F894FA9A7F
:1051A000F99A0FBE08950396272FECDFEADF252F2B
:1051B000E9DF242FE7CF0196272FE4DFE2CFDC01E0
:1051C000CB01FC01F999FECF06C0F2BDE1BDF89A12
:1051D000319600B40D9241505040B8F70895052E15
:1051E00097FB16F400940FD057FD05D080DE07FC26
:1051F00002D046F408C050954095309521953F4F18
:105200004F4F5F4F089590958095709561957F4FB2
:105210008F4F9F4F0895F894FFCF78057805AE051E
:10522000AE0507062306A005A005270690069C06E6
:105230009C06E711EE11F211F611FA11FE1102129D
:1052400006120A120E121212D418CB18D718C91847
:1052500028192819C91828192819F3182819FE1807
:1052600009192819281928192819C91828192819B5
:10527000C9182819E51828192819261926192619D0
:105280002619261926192619261926191419281936
:10529000D418C718281928192819281928192819BD
:1052A0002819281928192819141928192819C9186A
:1052B00028191B191B191B191B191B191B191B1941
:1052C0001B191B191419641AD61A6C1A361A3A1AB1
:1052D000701A3E1A741A801A4A1ACF1A4E1A841A71
:1052E000521A881AB01A561A8C1AB71A5C1A921ADD
:1052F0009A1A421A781A461A7C1A601A961AA61A2C
:10530000C01ACD1A301A681ADD1AD01DD61DC01D5C
:10531000CA1DDC1DE21DE81D0E263626182736267E
:0C5320001827692689261827DD26E926B3
:10532C00010000008A02AA02010102000100010131
:10533C0001191A1B1C1D1E1F202122280850011E9A
:10534C000A140100000100FD1F352130212B2126FC
:10535C0021E200E900EA00B500B600B700CD0083F9
:10536C0001CC008A0192019401210223022402251E
:10537C0002260227022A02B300B4006F0070009FBD
:10538C0001CB019F02A002818283E200E900EA00C6
:10539C00B500B600B700CD008301CC008A019201A4
:1053AC0094012102230224022502260227022A024A
:1053BC00B300B4006F0070009F01CB019F02A002EC
:1053CC00818283F7F6F5F4F0349091929395303115
:1053DC003233353666F196000102020202060606E9
:1053EC000909090909090F0F0F0F0F0F15151518CA
:1053FC0019191919191919191919232425252525CC
:0A540C00252568186A1875187B182A
:00000001FF
